:030000000201BC3E
:0C01BC00787FE4F6D8FD75811102020383
:100248004D6F62696C65204F7065726174656400FA
:1002580044544D462053707920526F626F74004D9C
:100268006F76696E6720464F52574152442E2E2EA4
:100278002020004D6F76696E67204C6566742E2EBF
:100288002E20202020004D6F76696E672052696706
:1002980068742E2E2E202000426F742053746F70C5
:1002A8007065642E2E2E202000424F542053746F08
:0E02B800707065642E2E2E2E2E202020200029
:100003001203DF12049912045DD2A0D2A1D2A1D2AD
:10001300A1D2A17D017F0112041C7BFF7A027948E2
:100023001202C67D027F0112041C7BFF7A027958FB
:100033001202C67F0112043712045D20A10920A217
:100043000620A20330A21B30A20343110130A203F6
:1000530043110230A30343110430A4034311085393
:10006300110FE511B401121204AB7D017F011204DB
:100073001C7BFF7A027967805AE511B402121204DD
:10008300C67D017F0112041C7BFF7A02797B8043CA
:10009300E511B403121204BD7D017F0112041C7B20
:1000A300FF7A02798E802CE511B404121204B47D18
:1000B300017F0112041C7BFF7A02798E8015E51102
:1000C300B405161204B47D017F0112041C7BFF7A70
:1000D3000279A01202C602003E1204A27D017F0132
:0F00E30012041C7BFF7A0279B11202C602003EA2
:1003FF00E4FFFEE4FDFC0DBD00010CED64C84C7084
:0C040F00F50FBF00010EEF640A4E70E70D
:01041B0022BE
:10039700D291C297C296C295C294EF30E002D2942E
:1003A700EF30E102D295EF30E202D296EF30E3026E
:0503B700D297C2912263
:10044B00AE07EEC4540FFF120397AF0612039702C9
:02045B0003FF9D
:10045D00C2907F0112044B7F0112044B1203FF0265
:02046D0003FF8B
:1003DF00C2907F0212044B7F2812044B7F06120437
:1003EF004B7F0C12044B7F8012044B7F0102044B96
:10041C00AB05AA07C290BB0107EA247FFF12044B6D
:0B042C00BB0207EA24BFFF12044B22B2
:07048100120131EF2430FFEE
:05048800D29002044BBC
:0602C6008B088A09890A79
:1002CC00E4F50BF50CAB08AA09A90A850C82850B81
:1002DC00831200F2FF120488050CE50C7002050B6A
:1002EC00AB08AA09A90AF582850B831200F270D516
:0102FC0022DF
:1002FD00AB07AA067C007D641204817C007D64AF8F
:10030D0003AE02120131AA04AB057C007D0AAF03D6
:10031D00AE02120481AE02AF037C007D0A120131E0
:07032D00ED2430FF020488FB
:10036900EF24FF92A4ED24FF92A5EB24FF92A6D2DD
:10037900A0D2A1C2A0C2A130A2FDD2A3AF80750DA7
:0E038900008F0EC2A3120334750D008F0E22DA
:0C048D007580FFC2A0C2A1D2A2C2A322AF
:02033400A90717
:10033600E4FDFC74017E00A804088005C333CE33B7
:10034600CED8F9FFE9FBEF5B6012C374089CFF741B
:1003560001A807088002C333D8FC42050CBC09D3A8
:02036600AF05E1
:010368002272
:0404E100020F000006
:1003BC00E4FDFCC3ED9FEC9E5015E4FBFA0BBB0077
:1003CC00010ABA03F8BBE8F50DBD00010C80E4E4AA
:0203DC00FEFF22
:0103DE0022FC
:100437007E007C037DE812011F8E0F8F101203BC14
:04044700E4FEFF22AE
:10046F00EF75F03CA485F00FF510FF120437E4FE92
:02047F00FF225A
:09049900C280C281C282C283222A
:0104E60022F3
:0904A200C280C281C282C2832221
:0904AB00D280C281D282C28322F8
:0904B400C280D281C282D28322EF
:0904BD00C280C281D282C28322F6
:0904C600C280C281D282C28322ED
:0904CF00C280D281C282D28322D4
:0904D800C280D281C282D28322CB
:1001C800020003E493A3F8E493A34003F68001F24A
:1001D80008DFF48029E493A3F85407240CC8C33338
:1001E800C4540F4420C8834004F456800146F6DF07
:1001F800E4800B01020408102040809004E1E47EB2
:10020800019360BCA3FF543F30E509541FFEE493FB
:10021800A360010ECF54C025E060A840B8E493A3C2
:10022800FAE493A3F8E493A3C8C582C8CAC583CAED
:10023800F0A3C8C582C8CAC583CADFE9DEE780BEA5
:0104E5000016
:1000F200BB010CE58229F582E5833AF583E02250C3
:1001020006E92582F8E622BBFE06E92582F8E2220C
:0D011200E58229F582E5833AF583E4932226
:10011F00EF8DF0A4A8F0CF8CF0A428CE8DF0A42EF4
:02012F00FE22AE
:10013100C2D5EC30E709B2D5E4C39DFDE49CFCEEE9
:1001410030E715B2D5E4C39FFFE49EFE120167C3F9
:10015100E49DFDE49CFC800312016730D507C3E4F4
:060161009FFFE49EFE2258
:10016700BC000BBE0029EF8DF084FFADF022E4CC7C
:10017700F875F008EF2FFFEE33FEEC33FCEE9DEC45
:10018700984005FCEE9DFE0FD5F0E9E4CEFD22ED8B
:10019700F8F5F0EE8420D21CFEADF075F008EF2FD5
:1001A700FFED33FD4007985006D5F0F222C398FDC6
:0501B7000FD5F0EA2263
:00000001FF
