:0300000002019862
:0C019800787FE4F6D8FD7581110201DFCC
:100224004D6F62696C65204F70657261746564001E
:1002340044544D462053707920526F626F74004DC0
:100244006F76696E6720464F52574152442E2E2EC8
:100254002020004D6F76696E67204C6566742E2EE3
:100264002E20202020004D6F76696E67205269672A
:1002740068742E2E2E202000424F542053746F7029
:0D0284007065642E2E2E2E2E2020202000CE
:100003001203AA120464120428D2A0D2A1D2A1D24C
:10001300A1D2A17D017F011203E77BFF7A0279243C
:100023001202917D027F011203E77BFF7A0279348A
:100033001202917F0112040212042830A10343111A
:100043000130A20343110230A30343110430A4037C
:1000530043110853110FE511B401121204767D0107
:100063007F011203E77BFF7A0279438043E511B4F2
:1000730002121204917D017F011203E77BFF7A02D2
:100083007957802CE511B403121204887D017F0196
:100093001203E77BFF7A02796A8015E511B4041530
:1000A30012047F7D017F011203E77BFF7A02796AE5
:1000B300120291808612046D7D017F011203E77B9A
:0B00C300FF7A02797C12029102003EDD
:1003CA00E4FFFEE4FDFC0DBD00010CED64C84C70B9
:0C03DA00F50FBF00010EEF640A4E70E743
:0103E60022F4
:10036200D291C297C296C295C294EF30E002D29463
:10037200EF30E102D295EF30E202D296EF30E302A3
:05038200D297C2912298
:10041600AE07EEC4540FFF120362AF061203620268
:0204260003CA07
:10042800C2907F011204167F011204161203CA0239
:0204380003CAF5
:1003AA00C2907F021204167F281204167F061204D6
:1003BA00167F0C1204167F801204167F010204169F
:1003E700AB05AA07C290BB0107EA247FFF120416D8
:0B03F700BB0207EA24BFFF120416221D
:07044C0012010DEF2430FF47
:05045300D29002041626
:060291008B088A09890AAE
:10029700E4F50BF50CAB08AA09A90A850C82850BB6
:1002A700831200CEFF120453050CE50C7002050BF8
:1002B700AB08AA09A90AF582850B831200CE70D56F
:0102C7002214
:1002C800AB07AA067C007D6412044C7C007D64AFF9
:1002D80003AE0212010DAA04AB057C007D0AAF0330
:1002E800AE0212044CAE02AF037C007D0A12010D6F
:0702F800ED2430FF02045366
:10033400EF24FF92A4ED24FF92A5EB24FF92A6D212
:10034400A0D2A1C2A0C2A130A2FDD2A3AF80750DDC
:0E035400008F0EC2A31202FF750D008F0E2245
:0C0458007580FFC2A0C2A1D2A2C2A322E4
:0202FF00A9074D
:10030100E4FDFC74017E00A804088005C333CE33EC
:10031100CED8F9FFE9FBEF5B6012C374089CFF7450
:1003210001A807088002C333D8FC42050CBC09D3DD
:02033100AF0516
:0103330022A7
:0404AC00020F00003B
:10038700E4FDFCC3ED9FEC9E5015E4FBFA0BBB00AC
:10039700010ABA03F8BBE8F50DBD00010C80E4E4DF
:0203A700FEFF57
:0103A9002231
:100402007E007C037DE81200FB8E0F8F10120387A3
:04041200E4FEFF22E3
:10043A00EF75F03CA485F00FF510FF120402E4FEFC
:02044A00FF228F
:09046400C280C281C282C283225F
:0104B1002228
:09046D00C280C281C282C2832256
:09047600D280C281D282C283222D
:09047F00C280D281C282D2832224
:09048800C280C281D282C283222B
:09049100C280C281D282C2832222
:09049A00C280D281C282D2832209
:0904A300C280D281C282D2832200
:1001A400020003E493A3F8E493A34003F68001F26E
:1001B40008DFF48029E493A3F85407240CC8C3335C
:1001C400C4540F4420C8834004F456800146F6DF2B
:1001D400E4800B01020408102040809004ACE47E0B
:1001E400019360BCA3FF543F30E509541FFEE49320
:1001F400A360010ECF54C025E060A840B8E493A3E7
:10020400FAE493A3F8E493A3C8C582C8CAC583CA11
:10021400F0A3C8C582C8CAC583CADFE9DEE780BEC9
:0104B000004B
:1000CE00BB010CE58229F582E5833AF583E02250E7
:1000DE0006E92582F8E622BBFE06E92582F8E22231
:0D00EE00E58229F582E5833AF583E493224B
:1000FB00EF8DF0A4A8F0CF8CF0A428CE8DF0A42E19
:02010B00FE22D2
:10010D00C2D5EC30E709B2D5E4C39DFDE49CFCEE0D
:10011D0030E715B2D5E4C39FFFE49EFE120143C341
:10012D00E49DFDE49CFC800312014330D507C3E43C
:06013D009FFFE49EFE227C
:10014300BC000BBE0029EF8DF084FFADF022E4CCA0
:10015300F875F008EF2FFFEE33FEEC33FCEE9DEC69
:10016300984005FCEE9DFE0FD5F0E9E4CEFD22EDAF
:10017300F8F5F0EE8420D21CFEADF075F008EF2FF9
:10018300FFED33FD4007985006D5F0F222C398FDEA
:050193000FD5F0EA2287
:00000001FF
