:030000000201B446
:0C01B400787FE4F6D8FD7581110201FB94
:100240004D6F62696C65204F706572617465640002
:1002500044544D462053707920526F626F74004DA4
:100260006F76696E6720464F52574152442E2E2EAC
:100270002020004D6F76696E67204C6566742E2EC7
:100280002E20202020004D6F76696E67205269670E
:1002900068742E2E2E202000424F542053746F700D
:0D02A0007065642E2E2E2E2E2020202000B2
:100003001203C6120480120444D2A0D2A1D2A1D2F8
:10001300A1D2A17D017F011204037BFF7A02794003
:100023001202AD7D027F011204037BFF7A02795035
:100033001202AD7F0112041E12044420A30B20A25E
:100043000830A105751101802820A30B30A20820D8
:10005300A105751102801A20A30B30A20830A10557
:10006300751103800C30A30920A20620A10375118A
:1000730004E511B401121204927D017F01120403FD
:100083007BFF7A02795F8043E511B402121204AD5B
:100093007D017F011204037BFF7A027973802CE5D3
:1000A30011B403121204A47D017F011204037BFF28
:1000B3007A0279868015E511B4041612049B7D013A
:1000C3007F011204037BFF7A0279861202AD0200DC
:1000D3003E1204897D017F011204037BFF7A0279BA
:0700E300981202AD02003E7D
:1003E600E4FFFEE4FDFC0DBD00010CED64C84C709D
:0C03F600F50FBF00010EEF640A4E70E727
:0104020022D7
:10037E00D291C297C296C295C294EF30E002D29447
:10038E00EF30E102D295EF30E202D296EF30E30287
:05039E00D297C291227C
:10043200AE07EEC4540FFF12037EAF0612037E0214
:0204420003E6CF
:10044400C2907F011204327F011204321203E602C9
:0204540003E6BD
:1003C600C2907F021204327F281204327F06120482
:1003D600327F0C1204327F801204327F0102043213
:10040300AB05AA07C290BB0107EA247FFF1204329F
:0B041300BB0207EA24BFFF12043222E4
:07046800120129EF2430FF0F
:05046F00D290020432EE
:0602AD008B088A09890A92
:1002B300E4F50BF50CAB08AA09A90A850C82850B9A
:1002C300831200EAFF12046F050CE50C7002050BA4
:1002D300AB08AA09A90AF582850B831200EA70D537
:0102E30022F8
:1002E400AB07AA067C007D641204687C007D64AFC1
:1002F40003AE02120129AA04AB057C007D0AAF03F8
:10030400AE02120468AE02AF037C007D0A1201291A
:07031400ED2430FF02046F2D
:10035000EF24FF92A4ED24FF92A5EB24FF92A6D2F6
:10036000A0D2A1C2A0C2A130A2FDD2A3AF80750DC0
:0E037000008F0EC2A312031B750D008F0E220C
:0C0474007580FFC2A0C2A1D2A2C2A322C8
:02031B00A90730
:10031D00E4FDFC74017E00A804088005C333CE33D0
:10032D00CED8F9FFE9FBEF5B6012C374089CFF7434
:10033D0001A807088002C333D8FC42050CBC09D3C1
:02034D00AF05FA
:01034F00228B
:0404C800020F00001F
:1003A300E4FDFCC3ED9FEC9E5015E4FBFA0BBB0090
:1003B300010ABA03F8BBE8F50DBD00010C80E4E4C3
:0203C300FEFF3B
:0103C5002215
:10041E007E007C037DE81201178E0F8F101203A34E
:04042E00E4FEFF22C7
:10045600EF75F03CA485F00FF510FF12041EE4FEC4
:02046600FF2273
:09048000C280C281C282C2832243
:0104CD00220C
:09048900C280C281C282C283223A
:09049200D280C281D282C2832211
:09049B00C280D281C282D2832208
:0904A400C280C281D282C283220F
:0904AD00C280C281D282C2832206
:0904B600C280D281C282D28322ED
:0904BF00C280D281C282D28322E4
:1001C000020003E493A3F8E493A34003F68001F252
:1001D00008DFF48029E493A3F85407240CC8C33340
:1001E000C4540F4420C8834004F456800146F6DF0F
:1001F000E4800B01020408102040809004C8E47ED3
:10020000019360BCA3FF543F30E509541FFEE49303
:10021000A360010ECF54C025E060A840B8E493A3CA
:10022000FAE493A3F8E493A3C8C582C8CAC583CAF5
:10023000F0A3C8C582C8CAC583CADFE9DEE780BEAD
:0104CC00002F
:1000EA00BB010CE58229F582E5833AF583E02250CB
:1000FA0006E92582F8E622BBFE06E92582F8E22215
:0D010A00E58229F582E5833AF583E493222E
:10011700EF8DF0A4A8F0CF8CF0A428CE8DF0A42EFC
:02012700FE22B6
:10012900C2D5EC30E709B2D5E4C39DFDE49CFCEEF1
:1001390030E715B2D5E4C39FFFE49EFE12015FC309
:10014900E49DFDE49CFC800312015F30D507C3E404
:060159009FFFE49EFE2260
:10015F00BC000BBE0029EF8DF084FFADF022E4CC84
:10016F00F875F008EF2FFFEE33FEEC33FCEE9DEC4D
:10017F00984005FCEE9DFE0FD5F0E9E4CEFD22ED93
:10018F00F8F5F0EE8420D21CFEADF075F008EF2FDD
:10019F00FFED33FD4007985006D5F0F222C398FDCE
:0501AF000FD5F0EA226B
:00000001FF
