:0300000002018773
:0C018700787FE4F6D8FD7581170201CEE8
:1002580048656C6D657420466F7220526F6164004A
:10026800202020536166657479004576657274684C
:10027800696E67204F4B004E6F2068656C6D657422
:080288002E2E2E2E2E2E2E002C
:03040B00011700D6
:1000E600E4F508F509F50AF50B1202EC1203F5D250
:1000F60081D282D283D284D285D286D287C280C26E
:10010600801203C57D017F011203717BFF7A02799C
:10011600581202907D027F011203717BFF7A0279E9
:10012600681202907FE87E03120310D280C280120A
:1001360003C5A281E433F508E50B7019C2807D0181
:100146007F011203717BFF7A0279721202907FE8B7
:100156007E03120310E508B40122D280D284D2872E
:100166007D017F011203717BFF7A02797F12029073
:100176007FFA7E00120310750B0180B6E4F50B8042
:01018600B1C7
:050333007F031202C768
:10033800E4FFFEE4FDFC0DBD00010CED64C84C704B
:0C034800F50FBF00010EEF640A4E70E7D5
:010354002286
:1002C700D291C297C296C295C294EF30E002D294FF
:1002D700EF30E102D295EF30E202D296EF30E3023F
:0502E700D297C2912234
:1003B300AE07EEC4540FFF1202C7AF061202C70204
:0203C3000338FD
:1003C500C2907F011203B37F011203B312033802F7
:0203D5000338EB
:1002EC00C2901203331203337F021202C712033877
:1002FC007F281203B37F061203B37F0C1203B37F64
:04030C00010203B334
:10037100AB05AA07C290BB0107EA247FFF1203B3B2
:0B038100BB0207EA24BFFF1203B322F7
:05041B00D2900203B3C2
:060290008B0C8A0D890EA3
:10029600E4F50FF510AB0CAA0DA90E851082850F9B
:1002A6008312001CFF12041B0510E5107002050FD7
:1002B600AB0CAA0DA90EF582850F8312001C70D512
:0102C6002215
:04021300AB07AA0685
:100217007C007D0A1200B08E118F127C007D64AFC6
:1002270003AE021200B0EF2430FF12041BAE11AF71
:10023700127C007D0A12005BED2430FF12041BAE16
:1002470002AF037C007D0A1200B0ED2430FF0204E8
:010257001B8B
:0104200022B9
:0C03E9007580FFC2A0C2A1D2A2C2A32254
:10035500E4FDFCEF540742A0D2A0D2A1C2A0C2A1E5
:0B03650030A2FDD2A3AF80AD07C2A301
:01037000226A
:04040E0002150000D3
:10031000E4FDFCC3ED9FEC9E5015E4FBFA0BBB0023
:10032000010ABA03F8BBE8F50DBD00010C80E4E456
:02033000FEFFCE
:0103320022A8
:10038C007E007C037DE81200498E158F1612031037
:04039C00E4FEFF225A
:1003D700EF75F03CA485F015F516FF12038CE4FECB
:0203E700FF22F3
:0C03F500758920758DFD759850D28E2200
:080413008F993099FDC2992276
:1003A000120003FF600C120413740129F9E43AFAF5
:0303B00080EE22BA
:09040100E4FF3098FDAF99C298A8
:01040A0022CF
:100193000200E6E493A3F8E493A34003F68001F29C
:1001A30008DFF48029E493A3F85407240CC8C3336D
:1001B300C4540F4420C8834004F456800146F6DF3C
:1001C300E4800B010204081020408090040BE47EBD
:1001D300019360BCA3FF543F30E509541FFEE49331
:1001E300A360010ECF54C025E060A840B8E493A3F8
:1001F300FAE493A3F8E493A3C8C582C8CAC583CA23
:10020300F0A3C8C582C8CAC583CADFE9DEE780BEDA
:0104120000E9
:10000300BB010689828A83E0225002E722BBFE02FB
:09001300E32289828A83E493222E
:10001C00BB010CE58229F582E5833AF583E0225099
:10002C0006E92582F8E622BBFE06E92582F8E222E3
:0D003C00E58229F582E5833AF583E49322FD
:10004900EF8DF0A4A8F0CF8CF0A428CE8DF0A42ECB
:02005900FE2285
:10005B00BC000BBE0029EF8DF084FFADF022E4CC89
:10006B00F875F008EF2FFFEE33FEEC33FCEE9DEC52
:10007B00984005FCEE9DFE0FD5F0E9E4CEFD22ED98
:10008B00F8F5F0EE8420D21CFEADF075F008EF2FE2
:10009B00FFED33FD4007985006D5F0F222C398FDD3
:0500AB000FD5F0EA2270
:1000B000C2D5EC30E709B2D5E4C39DFDE49CFCEE6B
:1000C00030E715B2D5E4C39FFFE49EFE12005BC388
:1000D000E49DFDE49CFC800312005B30D507C3E483
:0600E0009FFFE49EFE22DA
:00000001FF
