:0300000002040AED
:0C040A00787FE4F6D8FD75817E02045175
:050536007F031204CA5E
:10053B00E4FFFEE4FDFC0DBD00010CED64C84C7046
:0C054B00F50FBF00010EEF640A4E70E7D0
:010557002281
:1004CA00D291C297C296C295C294EF30E002D294FA
:1004DA00EF30E102D295EF30E202D296EF30E3023A
:0504EA00D297C291222F
:1005A800AE07EE7804A2E713D8FBFF1204CAAF0621
:0605B8001204CA02053B1B
:1005FB00C2907F011205A87F011205A812053B02CC
:02060B00053BAD
:1004EF00C2901205361205367F021204CA12053B5E
:1004FF007F281205A87F061205A87F0C1205A87F7A
:04050F00010205A838
:10057600AB05AA07C290BB0107EA247FFF1205A8B4
:0B058600BB0207EA24BFFF1205A822F9
:05064400D2900205A8A0
:1005E800120003FF600C120644740129F9E43AFA78
:0305F80080EE2270
:04064900027D00002E
:10051300E4FDFCC3ED9FEC9E5015E4FBFA0BBB001E
:10052300010ABA03F8BBE8F50DBD00010C80E4E451
:02053300FEFFC9
:0105350022A3
:1005D4007E007C037DE812001C8E7D8F7E12051345
:0405E400E4FEFF2210
:10060D00EF75F03CA485F07DF57EFF1205D4E4FE78
:02061D00FF22BA
:0C061F00758920758DFD759850D28E22D3
:080635008F993099FDC2992252
:10059100120003FF600C120635740129F9E43AFADE
:0705A10080EEE4FF020635C5
:09062B00E4FF3098FDAF99C2987C
:0106340022A3
:1005BE00E4FFFE12062B74082EF8A6070EEF70F35A
:0505CE00FB7A00790832
:0105D3002205
:07063D007B007A007908221E
:10030B00524649442053545544454E544558414D4B
:10031B0000415454454E4441434520535953544591
:10032B004D0057454C434F4D4520544B522045589B
:10033B00414D00535749504520594F555220524675
:10034B004944003443303036463238434343370058
:10035B0031373030312050524553454E54003443E1
:10036B00303036453842393833310031373030325E
:10037B002050524553454E5400496E76616C69646A
:10038B00204944202E2E2E2E2E00504C45415345F5
:10039B002054414B450053454154204E4F3A203594
:1003AB000053454154204E4F3A20310053454154A0
:1003BB00204E4F3A20380053454154204E4F3A209F
:1003CB0031300053454154204E4F3A2031350053C4
:1003DB00454154204E4F3A20323200534541542070
:1003EB004E4F3A2033360053454154204E4F3A205E
:0F03FB0034320053454154204E4F3A20343900DC
:1001C90075780AE4F5791204EF12061FD280C2800D
:1001D9007BFF7A03790B1205E87D027F0112057610
:1001E9007BFF7A03791C1205E87FE87E0312051369
:1001F9001205FB7D017F011205767BFF7A03792DBC
:100209001205E87D027F011205767BFF7A03793EAC
:100219001205E81204967BFF7A03794E120558EF0E
:10022900600B1205FB7BFF7A03795B80157BFF7AF4
:10023900037969120558EF60181205FB7BFF7A03F1
:1002490079761205E87FE87E031205137579018036
:10025900131205FB7BFF7A0379841205E87FE87E98
:1002690003120513E579640170890578537807D27B
:10027900801205FB7BFF7A0379951205E87D027FE1
:1002890001120576E578B401087BFF7A0379A1802C
:100299005FE578B402087BFF7A0379AC8052E57890
:1002A900B403087BFF7A0379B78045E578B404087D
:1002B9007BFF7A0379C28038E578B405087BFF7A39
:1002C9000379CE802BE578B406087BFF7A0379DAC7
:1002D900801EE578B407087BFF7A0379E68011E58B
:1002E900787BFFB407067A0379F280047A0379FEF2
:1002F9001205E87FF47E01120513C280E4F5790244
:0203090001FCF5
:01064E002289
:10049600C2987F017E00120513C298C298C2987F47
:1004A600017E00120513C298E4F57A12062B746CCD
:1004B600257AF8A607057AD3E57A6480948C40EB12
:0304C600E4F578E2
:0104C9002210
:100558008B7A8A7B897CA801AC02AD037B007A0088
:0E056800796C1201ACEF70037F01227F00223C
:100416000201C9E493A3F8E493A34003F68001F232
:1004260008DFF48029E493A3F85407240CC8C333E7
:10043600C4540F4420C8834004F456800146F6DFB6
:10044600E4800B0102040810204080900649E47EF7
:10045600019360BCA3FF543F30E509541FFEE493AB
:10046600A360010ECF54C025E060A840B8E493A372
:10047600FAE493A3F8E493A3C8C582C8CAC583CA9D
:10048600F0A3C8C582C8CAC583CADFE9DEE780BE55
:01064D0000AC
:10000300BB010689828A83E0225002E722BBFE02FB
:09001300E32289828A83E493222E
:10001C00EF8DF0A4A8F0CF8CF0A428CE8DF0A42EF8
:02002C00FE22B2
:10002E00E3F5F009E208B5F06D606B80F3E3F5F0EF
:10003E0009E608B5F060605E80F387F009E608B562
:10004E00F054605280F487F009E208B5F04860463B
:10005E0080F488828C8387F009E0A3B5F03860368F
:10006E0080F488828C8387F009E493A3B5F027602F
:10007E002580F388828C83E3F5F009E0A3B5F016B2
:10008E00601480F388828C83E3F5F009E493A3B5C2
:10009E00F004600280F2020159808580E7808E8034
:1000AE00D2803C8015806C807E809B80B5808B805A
:1000BE00A1804F8070803A02016589828A83ECFAB2
:1000CE00E493F5F0A3C8C582C8CCC583CCE493A352
:1000DE00C8C582C8CCC583CCB5F070606E80E1898E
:1000EE00828A83E493F5F0A3E208B5F05E605C804B
:1000FE00F289828A83E0F5F0A3E608B5F04D604BF5
:10010E0080F389828A83E0F5F0A3E208B5F03C60C3
:10011E003A80F389828A83E493F5F0A3E608B5F07A
:10012E002A602880F2805389828A83ECFAE493F560
:10013E00F0A3C8C582C8CCC583CCE0A3C8C582C80D
:10014E00CCC583CCB5F004600280E27FFFB5F0022F
:10015E000F2240027F012289828A83ECFAE0F5F0B9
:10016E00A3C8C582C8CCC583CCE0A3C8C582C8CC01
:10017E00C583CCB5F0D560D380E389828A83ECFA4F
:10018E00E0F5F0A3C8C582C8CCC583CCE493A3C860
:10019E00C582C8CCC583CCB5F0B160AF80E288F023
:1001AE00ED2402B4040050A3F582EB2402B4040043
:0B01BE00509923234582239000A77373
:00000001FF
