:03000000020A14DD
:0C0A1400787FE4F6D8FD758129020A5BAA
:050C5D007F03120BCD26
:100C6200E4FFFEE4FDFC0DBD00010CED64C84C7018
:0C0C7200F50FBF00010EEF640A4E70E7A2
:010C7E002253
:100BCD00D291C297C296C295C294EF30E002D294F0
:100BDD00EF30E102D295EF30E202D296EF30E30230
:050BED00D297C2912225
:100CAE00AE07EEC4540FFF120BCDAF06120BCD02E2
:020CBE000C62C6
:100CC000C2907F01120CAE7F01120CAE120C6202B8
:020CD0000C62B4
:100BF200C290120C5D120C5D7F02120BCD120C62C0
:100C02007F28120CAE7F06120CAE7F0C120CAE7F48
:040C120001020CAE21
:100C7F00AB05AA07C290BB0107EA247FFF120CAE97
:0B0C8F00BB0207EA24BFFF120CAE22DC
:050D0D00D290020CAEC3
:060B96008B088A09890AA0
:100B9C00E4F50BF50CAB08AA09A90A850C82850BA8
:100BAC00831208F6FF120D0D050CE50C7002050BF7
:100BBC00AB08AA09A90AF582850B831208F670D531
:010BCC002206
:040CF00002280000D6
:100C3A00E4FDFCC3ED9FEC9E5015E4FBFA0BBB00F0
:100C4A00010ABA03F8BBE8F50DBD00010C80E4E423
:020C5A00FEFF9B
:010C5C002275
:100C9A007E007C037DE81209238E288F29120C3AE4
:040CAA00E4FEFF2243
:100CD200EF75F03CA485F028F529FF120C9AE4FE8A
:020CE200FF22EF
:0C0CE400758920759850758DFDD28E2208
:080D05008F993099FDC299227B
:060C16008B258A268927C8
:100C1C00E4FDFCAB25AA26A9278D828C831208F64D
:0D0C2C00FF600A120D050DBD00010C80E6F1
:010C39002298
:090CFB00E4FF3098FDAF99C298A6
:010D040022CC
:100AA0002052462049442053545544454E5420007A
:100AB0002020415454454E44414E43450020535755
:100AC00049504520594F5552200020524620494454
:100AD000204341524400524F4C4C204E4F31205045
:100AE000524553454E5400524F4C4C204E4F3220ED
:100AF00050524553454E5400494E56414C494420AE
:100B000049442020200046453030343438373941BC
:0E0B100041374645303035423344323342429D
:060CF400012300012200B3
:10093500120BF2120CE4C291C280C2907BFF7A0ABC
:1009450079A0120B967D027F01120C7F7BFF7A0A3C
:1009550079B0120B96D291C280C2907FE87E0312C5
:100965000C3A120CC07D017F01120C7F7BFF7A0AC5
:1009750079BD120B967D027F01120C7F7BFF7A0AEF
:1009850079CA120B96E4F523A2984003D38001C3DC
:1009950050F6120CFB8F2474172523F8A624052383
:1009A500E523D3940B40E1120CC07B007A00791744
:1009B500120B1EEF701A120CC07BFF7A0A79D61241
:1009C5000B96C2907FF47E01120C3A752201803A93
:1009D5007B007A007917120B5AEF7019120CC07B45
:1009E500FF7A0A79E7120B96C2907FF47E01120C0A
:1009F5003A05228015C290120CC07BFF7A0A79F85D
:0F0A0500120B967FFA7E00120C3AD2900209670C
:060B1E008B088A09890A18
:100B2400780B7C007D007BFF7A0B79067E007F0CBE
:100B34001208D0E4FFFEAB08AA09A90A8F827583C4
:100B4400001208F6FD740B2FF8E66D60027E010FAB
:050B5400BF0CE3AF0639
:010B59002279
:060B5A008B088A09890ADC
:100B6000780B7C007D007BFF7A0B79127E007F0C76
:100B70001208D0E4FFFEAB08AA09A90A8F82758388
:100B8000001208F6FD740B2FF8E66D60027E010F6F
:050B9000BF0CE3AF06FD
:010B9500223D
:100A2000020935E493A3F8E493A34003F68001F2AE
:100A300008DFF48029E493A3F85407240CC8C333D7
:100A4000C4540F4420C8834004F456800146F6DFA6
:100A5000E4800B0102040810204080900CF0E47E3A
:100A6000019360BCA3FF543F30E509541FFEE4939B
:100A7000A360010ECF54C025E060A840B8E493A362
:100A8000FAE493A3F8E493A3C8C582C8CAC583CA8D
:100A9000F0A3C8C582C8CAC583CADFE9DEE780BE45
:010CFA0000F9
:10080000E709F608DFFA8046E709F208DFFA803EDA
:1008100088828C83E709F0A3DFFA8032E309F608C7
:10082000DFFA8078E309F208DFFA807088828C832F
:10083000E309F0A3DFFA806489828A83E0A3F608E3
:10084000DFFA805889828A83E0A3F208DFFA804CBD
:1008500080D280FA80C680D4806980F28033801094
:1008600080A680EA809A80A880DA80E280CA8033FD
:1008700089828A83ECFAE493A3C8C582C8CCC58375
:10088000CCF0A3C8C582C8CCC583CCDFE9DEE78045
:100890000D89828A83E493A3F608DFF9ECFAA9F0C4
:1008A000EDFB2289828A83ECFAE0A3C8C582C8CC1A
:1008B000C583CCF0A3C8C582C8CCC583CCDFEADE33
:1008C000E880DB89828A83E493A3F208DFF980CC95
:1008D00088F0EF60010E4E60C388F0ED2402B4048E
:1008E0000050B9F582EB2402B4040050AF23234535
:0608F00082239008507302
:1008F600BB010CE58229F582E5833AF583E02250B7
:1009060006E92582F8E622BBFE06E92582F8E22200
:0D091600E58229F582E5833AF583E493221A
:10092300EF8DF0A4A8F0CF8CF0A428CE8DF0A42EE8
:02093300FE22A2
:00000001FF
