:0300000002088370
:0C088300787FE4F6D8FD7581630208CA96
:10046600544B5220454E47494E454552494E47202A
:10047600434F4C320020454C454354524F4E49435E
:10048600204E4F5449434520002020424F415244BC
:10049600205553494E472047534D2020002A2A2AEB
:1004A6002A2A2A2A2A2A2A2A2A2A2A2A2A2A2A2AA6
:1004B6002A002D2D2D2D2D2D2D2D2D2D2D2D2D2D96
:1004C6002D2D2D2D2D2D00496E6974696C697A6963
:1004D6006E672047534D2E2E2E2E2E004154004D72
:1004E6004F44454D204154204F4B202E2E2E2E009A
:1004F60041544530004D4F44454D204543484F201B
:100506004F46462E2E2E2E00436865636B696E6736
:100516002047534D204E6574776F726B0041542B04
:100526004350494E3F004D4F44454D204350494EA0
:10053600204F4B202E2E2E2E2E2E0041542B434D77
:1005460047463D3100534D5320544558544D204F96
:100556004B202E2E2E2E2E2E200041542B434D475F
:10056600533D222B39313936363633333336393526
:10057600220047534D204D4F44554C45205445537A
:100586005420534D5300534D532054455354204F3C
:100596004B202E2E2E2E2E004C4F4144494E4720E6
:1005A600494E424F582E2E2E2E2E0041542B434D8F
:1005B60047443D310041542B434D47443D320041B1
:1005C600542B434D47443D330041542B434D474440
:1005D6003D340041542B434D47443D350041542B97
:1005E600434D47443D360041542B434D47443D3728
:1005F6000041542B434D47443D380041542B434D55
:1006060047443D390041542B434D47443D3130006A
:10061600534D5320494E424F5820434C45414E2E90
:100626002E2E2E0053454E44204E4F54494345200E
:10063600202020202020200041542B434D47523DAE
:10064600310041542B434D47523D0041542B434DFD
:1006560047443D00000000000000000000000000CC
:100666000000000000000000000000000000000084
:100676000000000000000000000000000000000074
:100686000000000000000000000000000000000064
:100696000000000000000000000000000000000054
:0406A6000000000050
:1000030078087C007D007BFF7A06795A7E007F505A
:1000130012077AE4F558F559F55AF55B1209F0120F
:100023000AB1120A81E4FD7F0112097D7BFF7A0484
:10003300796612090FE4FD7F0212097D7BFF7A04C2
:10004300797B12090FE4FD7F0312097D7BFF7A049C
:10005300798F12090FE4FD7F0412097D7BFF7A0477
:1000630079A312090F7FE87E031209CDE4FD7F0314
:1000730012097D7BFF7A0479B812090FE4FD7F042E
:1000830012097D7BFF7A0479CD12090F7BFF7A0475
:1000930079E2120A5C7F327E001209CD7F0D120ACB
:1000A300C7120ABDBF4FFA120ABDBF4BFAE4FD7F68
:1000B3000412097D7BFF7A0479E512090F7BFF7A2D
:1000C3000479F6120A5C7F0D120AC7120ABDBF4FEC
:1000D300FA120ABDBF4BFAE4FD7F0412097D7BFFD0
:1000E3007A0479FB12090FE4FD7F0412097D7BFF7B
:1000F3007A05790E12090F7FFA7E001209CD7BFF74
:100103007A057923120A5C7F647E001209CD7F0D84
:10011300120AC7120ABDBF52FA120ABDBF45FA122C
:100123000ABDBF41FA120ABDBF44FA120ABDBF5944
:10013300FAE4FD7F0412097D7BFF7A05792C12090D
:100143000F7BFF7A057941120A5C7F647E001209F6
:10015300CD7F0D120AC7120ABDBF4FFA120ABDBFE7
:100163004BFAE4FD7F0412097D7BFF7A05794B127C
:10017300090F7BFF7A057960120A5C7F327E0012D9
:1001830009CD7F0D120AC7120ABDBF3EFA7BFF7A63
:10019300057978120A5C7F647E001209CD7F1A12FA
:1001A3000AC7120ABDBF4FFA120ABDBF4BFAE4FDDC
:1001B3007F0412097D7BFF7A05798C12090F7F6416
:1001C3007E001209CDE4FD7F0412097D7BFF7A05D1
:1001D300799E12090F7FF47E011209CD7BFF7A0508
:1001E30079B1120A5C7F327E001209CD7F0D120AAB
:1001F300C7120ABDBF4FFA120ABDBF4BFA7BFF7A83
:100203000579BB120A5C7F327E001209CD7F0D1285
:100213000AC7120ABDBF4FFA120ABDBF4BFA7BFFD2
:100223007A0579C5120A5C7F327E001209CD7F0DF3
:10023300120AC7120ABDBF4FFA120ABDBF4BFA7B9F
:10024300FF7A0579CF120A5C7F327E001209CD7FD7
:100253000D120AC7120ABDBF4FFA120ABDBF4BFAED
:100263007BFF7A0579D9120A5C7F327E001209CDB1
:100273007F0D120AC7120ABDBF4FFA120ABDBF4B48
:10028300FA7BFF7A0579E3120A5C7F327E0012095A
:10029300CD7F0D120AC7120ABDBF4FFA120ABDBFA6
:1002A3004BFA7BFF7A0579ED120A5C7F327E0012EE
:1002B30009CD7F0D120AC7120ABDBF4FFA120ABD3C
:1002C300BF4BFA7BFF7A0579F7120A5C7F327E0017
:1002D3001209CD7F0D120AC7120ABDBF4FFA120AC7
:1002E300BDBF4BFA7BFF7A067901120A5C7F327E2F
:1002F300001209CD7F0D120AC7120ABDBF4FFA12B1
:100303000ABDBF4BFA7BFF7A06790B120A5C7F3278
:100313007E001209CD7F0D120AC7120ABDBF4FFA24
:10032300120ABDBF4BFAE4FD7F0412097D7BFF7AFD
:1003330006791612090F7FE87E031209CDE4FD7FCB
:100343000412097D7BFF7A06792A12090F7FE87E62
:10035300031209CD7BFF7A06793E120A5C7F327E57
:10036300001209CD7F0D120AC77F327E001209CD1C
:10037300120A817BFF7A05799E12090F309804C215
:100383009880F9E4F55AF559F55B30980CE55AB4C1
:100393000E07120ABD8F5B8011309805120ABD0546
:1003A3005AD3E55A6480948F40E0E4F55A120A81E7
:1003B300E4F55A309804C29880F97BFF7A067948AD
:1003C300120A5CAF5B120AC77F327E001209CD7F2F
:1003D3000D120AC77F327E001209CD3098FD309886
:1003E30021D3E55A648094C04018120ABD8F597412
:1003F300082558F8A659E559642660230558055A77
:100403008008309805120ABD055AAF5AEF3395E0BC
:10041300FED3EF9490EE6480948040BFE4F55A12CB
:100423000A8174082558F8E4F6FB7A007908120962
:100433000FE4F55AF5587BFF7A067951120A5CAF3F
:100443005B120AC77F327E001209CD7F0D120AC7E5
:10045300120ABDBF4FFA120ABDEF644B70030203C9
:030463007F80F3A4
:100A1000E4FFFEE4FDFC0DBD00010CED64C84C706C
:0C0A2000F50FBF00010EEF640A4E70E7F6
:010A2C0022A7
:1009A800D291C297C296C295C294EF30E002D29417
:1009B800EF30E102D295EF30E202D296EF30E30257
:0509C800D297C291224C
:100A6F00AE07EEC4540FFF1209A8AF061209A80271
:020A7F000A105B
:100A8100C2907F01120A6F7F01120A6F120A1002CF
:020A91000A1049
:1009F000C2907F02120A6F7F28120A6F7F06120AC6
:100A00006F7F0C120A6F7F80120A6F7F01020A6FDC
:10097D00AE07C290BE0105ED24808016BE0205EDC6
:10098D0024C0800EBE0305ED24948006BE0406ED42
:0B099D0024D4FF80027F80120A6F222A
:100A2D00AB05AA07C290BB0107EA247FFF120A6F2C
:0B0A3D00BB0207EA24BFFF120A6F2271
:070AA5001207F8EF2430FFF7
:050AAC00D290020A6F68
:06090F008B5C8A5D895E2D
:10091500E4F55FF560AB5CAA5DA95E856082855FE5
:10092500831207B9FF120AAC0560E5607002055F26
:10093500AB5CAA5DA95EF582855F831207B970D5A8
:01094500228F
:10094600AB07AA067C007D64120AA57C007D64AF15
:1009560003AE021207F8AA04AB057C007D0AAF03BA
:10096600AE02120AA5AE02AF037C007D0A1207F89A
:07097600ED2430FF020AAC82
:040ACF0002610000C0
:1009CD00E4FDFCC3ED9FEC9E5015E4FBFA0BBB0060
:1009DD00010ABA03F8BBE8F50DBD00010C80E4E493
:0209ED00FEFF0B
:0109EF0022E5
:100A48007E007C037DE81207E68E618F621209CD75
:040A5800E4FEFF2297
:100A9300EF75F03CA485F061F562FF120A48E4FEAD
:020AA300FF2230
:0C0AB100758920758DFD759850D28E223D
:080AC7008F993099FDC29922BC
:100A5C001207A0FF600C120AC7740129F9E43AFAD4
:030A6C0080EE22F7
:090ABD00E4FF3098FDAF99C298E6
:010AC600220D
:10088F00020003E493A3F8E493A34003F68001F27C
:10089F0008DFF48029E493A3F85407240CC8C3336A
:1008AF00C4540F4420C8834004F456800146F6DF39
:1008BF00E4800B0102040810204080900ACFE47EF0
:1008CF00019360BCA3FF543F30E509541FFEE4932E
:1008DF00A360010ECF54C025E060A840B8E493A3F5
:1008EF00FAE493A3F8E493A3C8C582C8CAC583CA20
:1008FF00F0A3C8C582C8CAC583CADFE9DEE780BED8
:010AD3000022
:1006AA00E709F608DFFA8046E709F208DFFA803E32
:1006BA0088828C83E709F0A3DFFA8032E309F6081F
:1006CA00DFFA8078E309F208DFFA807088828C8387
:1006DA00E309F0A3DFFA806489828A83E0A3F6083B
:1006EA00DFFA805889828A83E0A3F208DFFA804C15
:1006FA0080D280FA80C680D4806980F280338010EC
:10070A0080A680EA809A80A880DA80E280CA803354
:10071A0089828A83ECFAE493A3C8C582C8CCC583CC
:10072A00CCF0A3C8C582C8CCC583CCDFE9DEE7809C
:10073A000D89828A83E493A3F608DFF9ECFAA9F01B
:10074A00EDFB2289828A83ECFAE0A3C8C582C8CC71
:10075A00C583CCF0A3C8C582C8CCC583CCDFEADE8A
:10076A00E880DB89828A83E493A3F208DFF980CCEC
:10077A0088F0EF60010E4E60C388F0ED2402B404E5
:10078A000050B9F582EB2402B4040050AF2323458C
:06079A0082239006FA73B1
:1007A000BB010689828A83E0225002E722BBFE0257
:0907B000E32289828A83E493228A
:1007B900BB010CE58229F582E5833AF583E02250F5
:1007C90006E92582F8E622BBFE06E92582F8E2223F
:0D07D900E58229F582E5833AF583E4932259
:1007E600EF8DF0A4A8F0CF8CF0A428CE8DF0A42E27
:0207F600FE22E1
:1007F800C2D5EC30E709B2D5E4C39DFDE49CFCEE1C
:1008080030E715B2D5E4C39FFFE49EFE12082EC35D
:10081800E49DFDE49CFC800312082E30D507C3E458
:060828009FFFE49EFE228A
:10082E00BC000BBE0029EF8DF084FFADF022E4CCAE
:10083E00F875F008EF2FFFEE33FEEC33FCEE9DEC77
:10084E00984005FCEE9DFE0FD5F0E9E4CEFD22EDBD
:10085E00F8F5F0EE8420D21CFEADF075F008EF2F07
:10086E00FFED33FD4007985006D5F0F222C398FDF8
:05087E000FD5F0EA2295
:00000001FF
