:03000000020504F2
:0C050400787FE4F6D8FD75816302054B9A
:1003FC00496E6974696C697A696E672047534D2E32
:10040C002E2E2E2E004154004D4F44454D2041546C
:10041C00204F4B202E2E2E2E0041544530004D4F98
:10042C0044454D204543484F204F46462E2E2E2EF8
:10043C0000436865636B696E672047534D204E65BA
:10044C0074776F726B0041542B4350494E3F004DF3
:10045C004F44454D204350494E204F4B202E2E2EBD
:10046C002E2E2E0041542B434D47443D3100534D0D
:10047C005320544558544D204F4B202E2E2E2E2EAB
:10048C002E20004C4F4144494E4720494E424F5874
:10049C002E2E2E2E2E0041542B434D47523D004103
:1004AC00542B434D47443D00000000000000000069
:1004BC000000000000000000000000000000000030
:1004CC000000000000000000000000000000000020
:1004DC000000000000000000000000000000000010
:1004EC000000000000000000000000000000000000
:0804FC000000000000000000F8
:1000030078087C007D007BFF7A0479B47E007F5002
:100013001202F3E4F558F559F55AF55B120671121D
:1000230007321207027BFF7A0379FC1205907BFFEC
:100033007A0479111206DD7F327E0012064E7F0D9F
:1000430012074812073EBF4FFA12073EBF4BFA1280
:1000530007027BFF7A0479141205907BFF7A0479F7
:10006300251206DD7F0D12074812073EBF4FFA1215
:10007300073EBF4BFA1207027BFF7A04792A120567
:10008300901207027BFF7A04793D1205907FFA7E76
:100093000012064E7BFF7A0479521206DD7F647EDE
:1000A3000012064E7F0D12074812073EBF52FA1286
:1000B300073EBF45FA12073EBF41FA12073EBF444F
:1000C300FA12073EBF59FA1207027BFF7A04795BE3
:1000D3001205907BFF7A0479701206DD7F647E003F
:1000E30012064E7F0D12074812073EBF4FFA120742
:1000F3003EBF4BFA1207027BFF7A04797A1205900E
:100103007BFF7A0479701206DD7F327E0012064E81
:100113007F0D12074812073EBF4FFA12073EBF4B2F
:10012300FA1207027BFF7A04798F12059030980444
:10013300C29880F9E4F55AF559F55B30980CE55A05
:10014300B40E0712073E8F5B801130980512073EED
:10015300055AD3E55A6480948F40E0E4F55A1207B8
:1001630002E4F55AAF5B12072D7FE87E0312064EB9
:10017300309804C29880F97BFF7A0479A21206DDD5
:10018300AF5B1207487F327E0012064E7F0D1207C7
:10019300487F327E0012064E3098FD309821D3E519
:1001A3005A648094C0401812073E8F59740825582A
:1001B300F8A659E559642660230558055A80083086
:1001C300980512073E055AAF5AEF3395E0FED3EF79
:1001D3009490EE6480948040BFE4F55A1207027451
:1001E300082558F8E4F6FB7A007908120590E4F53F
:1001F3005AF5587BFF7A0479AB1206DDAF5B120721
:10020300487F147E0012064E7F0D12074812073EE8
:10021300BF4FFA12073EEF644B700302013080F3C5
:10069100E4FFFEE4FDFC0DBD00010CED64C84C70EF
:0C06A100F50FBF00010EEF640A4E70E779
:0106AD00222A
:10062900D291C297C296C295C294EF30E002D29499
:10063900EF30E102D295EF30E202D296EF30E302D9
:05064900D297C29122CE
:1006F000AE07EEC4540FFF120629AF0612062902F8
:02070000069160
:10070200C2907F011206F07F011206F012069102DA
:0207120006914E
:10067100C2907F021206F07F281206F07F06120652
:10068100F07F0C1206F07F801206F07F010206F067
:1005FE00AE07C290BE0105ED24808016BE0205ED49
:10060E0024C0800EBE0305ED24948006BE0406EDC4
:0B061E0024D4FF80027F801206F0222F
:1006AE00AB05AA07C290BB0107EA247FFF1206F032
:0B06BE00BB0207EA24BFFF1206F02277
:07072600120371EF2430FF04
:05072D00D2900206F06D
:060590008B5C8A5D895EB0
:10059600E4F55FF560AB5CAA5DA95E856082855F68
:1005A60083120332FF12072D0560E5607002055FB6
:1005B600AB5CAA5DA95EF582855F8312033270D5B6
:0105C6002212
:1005C700AB07AA067C007D641207267C007D64AF1A
:1005D70003AE02120371AA04AB057C007D0AAF03C8
:1005E700AE02120726AE02AF037C007D0A1203712A
:0705F700ED2430FF02072D87
:040750000261000042
:10064E00E4FDFCC3ED9FEC9E5015E4FBFA0BBB00E2
:10065E00010ABA03F8BBE8F50DBD00010C80E4E415
:02066E00FEFF8D
:010670002267
:1006C9007E007C037DE812035F8E618F6212064E05
:0406D900E4FEFF221A
:10071400EF75F03CA485F061F562FF1206C9E4FEB2
:02072400FF22B2
:0C073200758920758DFD759850D28E22BF
:080748008F993099FDC299223E
:1006DD00120319FF600C120748740129F9E43AFA64
:0306ED0080EE227A
:09073E00E4FF3098FDAF99C29868
:01074700228F
:10051000020003E493A3F8E493A34003F68001F2FE
:1005200008DFF48029E493A3F85407240CC8C333EC
:10053000C4540F4420C8834004F456800146F6DFBB
:10054000E4800B0102040810204080900750E47EF4
:10055000019360BCA3FF543F30E509541FFEE493B0
:10056000A360010ECF54C025E060A840B8E493A377
:10057000FAE493A3F8E493A3C8C582C8CAC583CAA2
:10058000F0A3C8C582C8CAC583CADFE9DEE780BE5A
:0107540000A4
:10022300E709F608DFFA8046E709F208DFFA803EBD
:1002330088828C83E709F0A3DFFA8032E309F608AA
:10024300DFFA8078E309F208DFFA807088828C8312
:10025300E309F0A3DFFA806489828A83E0A3F608C6
:10026300DFFA805889828A83E0A3F208DFFA804CA0
:1002730080D280FA80C680D4806980F28033801077
:1002830080A680EA809A80A880DA80E280CA8033E0
:1002930089828A83ECFAE493A3C8C582C8CCC58358
:1002A300CCF0A3C8C582C8CCC583CCDFE9DEE78028
:1002B3000D89828A83E493A3F608DFF9ECFAA9F0A7
:1002C300EDFB2289828A83ECFAE0A3C8C582C8CCFD
:1002D300C583CCF0A3C8C582C8CCC583CCDFEADE16
:1002E300E880DB89828A83E493A3F208DFF980CC78
:1002F30088F0EF60010E4E60C388F0ED2402B40471
:100303000050B9F582EB2402B4040050AF23234517
:06031300822390027373C7
:10031900BB010689828A83E0225002E722BBFE02E2
:09032900E32289828A83E4932215
:10033200BB010CE58229F582E5833AF583E0225080
:1003420006E92582F8E622BBFE06E92582F8E222CA
:0D035200E58229F582E5833AF583E49322E4
:10035F00EF8DF0A4A8F0CF8CF0A428CE8DF0A42EB2
:02036F00FE226C
:10037100C2D5EC30E709B2D5E4C39DFDE49CFCEEA7
:1003810030E715B2D5E4C39FFFE49EFE1203A7C375
:10039100E49DFDE49CFC80031203A730D507C3E470
:0603A1009FFFE49EFE2216
:1003A700BC000BBE0029EF8DF084FFADF022E4CC3A
:1003B700F875F008EF2FFFEE33FEEC33FCEE9DEC03
:1003C700984005FCEE9DFE0FD5F0E9E4CEFD22ED49
:1003D700F8F5F0EE8420D21CFEADF075F008EF2F93
:1003E700FFED33FD4007985006D5F0F222C398FD84
:0503F7000FD5F0EA2221
:00000001FF
