:0300000002059F57
:0C059F00787FE4F6D8FD7581170205E6B0
:10030F00456C6465722070656F706C6520636172F7
:10031F00696E67007573696E672073656E736F72B0
:10032F00206E6574776F726B00496E6974696C69C2
:10033F007A696E672047534D2E2E2E2E2E00415474
:10034F00004D4F44454D204154204F4B202E2E2E13
:10035F002E0041544530004D4F44454D20454348F4
:10036F004F204F46462E2E2E2E00436865636B6935
:10037F006E672047534D204E6574776F726B004147
:10038F00542B4350494E3F004D4F44454D20435051
:10039F00494E204F4B202E2E2E2E2E2E0041542B09
:1003AF00434D47443D3100534D5320544558544D10
:1003BF00204F4B202E2E2E2E2E2E200041542B431D
:1003CF004D47533D222B3931393636363333333699
:1003DF003935220047534D204D4F44554C4520543D
:1003EF0045535420534D5300534D532054455354AC
:1003FF00204F4B202E2E2E2E2E00506572736F6EB7
:10040F002046616C6C656E00504552534F4E20462E
:10041F00414C4C454E00534D532053656E74202E66
:10042F002E2E00506572736F6E20626F64790054C8
:10043F00656D706572617475726520496E63726562
:10044F006173656400504552534F4E20424F4459DB
:10045F002054656D706572617475726520696E6385
:10046F0072656173656400506572736F6E204865C5
:10047F0061727420726174650020496E63726561E8
:10048F0073656400506572736F6E20486561727496
:10049F00205261746520696E6372656173656400D3
:0D04AF004E6F726D616C202E2E2E2E2E00D1
:100003001206CC1207C91207A57D017F0112075101
:100013007BFF7A03790F1206707D027F011207516D
:100023007BFF7A0379231206707F0112076C120794
:10003300D51207A57BFF7A0379381206707BFF7A06
:1000430003794D1207807F327E001206F07F0D1276
:1000530007EB1207E1BF4FFA1207E1BF4BFA120792
:10006300A57BFF7A0379501206707BFF7A037961CF
:100073001207807F0D1207EB1207E1BF4FFA120739
:10008300E1BF4BFA1207A57BFF7A0379661206706C
:100093001207A57BFF7A0379791206707FFA7E0037
:1000A3001206F07BFF7A03798E1207807F647E004D
:1000B3001206F07F0D1207EB1207E1BF52FA120787
:1000C300E1BF45FA1207E1BF41FA1207E1BF44FA63
:1000D3001207E1BF59FA1207A57BFF7A037997123A
:1000E30006707BFF7A0379AC1207807F647E00126F
:1000F30006F07F0D1207EB1207E1BF4FFA1207E17B
:10010300BF4BFA1207A57BFF7A0379B61206707B01
:10011300FF7A0379CB1207807F327E001206F07FCD
:100123000D1207EB1207E1BF3EFA7BFF7A0379E377
:100133001207807F647E001206F07F1A1207EB120B
:1001430007E1BF4FFA1207E1BF4BFA7BFF7A03794E
:10015300F71206707F647E001206F01207A5E4FF13
:100163001207358F087F011207358F097F021207A7
:10017300358F0A7F031207358F0C7F041207358FE3
:100183000B7D017F01120751E508D39450500CE514
:100193000994505006E50A945040591207A57D0171
:1001A3007F011207517BFF7A0479091206707FF4ED
:1001B3007E011206F07BFF7A0379CB1207807F3230
:1001C3007E001206F07F0D1207EB1207E1BF3EFA25
:1001D3007BFF7A0479171207807F647E001206F092
:1001E3007F1A1207EB1207E1BF4FFA1207E1BF4B69
:1001F300FA0202D3E50CD3941440681207A57D01DB
:100203007F011207517BFF7A0479321206707D0257
:100213007F011207517BFF7A04793E1206707FF447
:100223007E011206F07BFF7A0379CB1207807F32BF
:100233007E001206F07F0D1207EB1207E1BF3EFAB4
:100243007BFF7A0479541207807F647E001206F0E4
:100253007F1A1207EB1207E1BF4FFA1207E1BF4BF8
:10026300FA806DE50BD39450407C1207A57D017F86
:10027300011207517BFF7A0479761206707D027FA3
:10028300011207517BFF7A0479881206707FF47E8E
:10029300011206F07BFF7A0379CB1207807F327E4F
:1002A300001206F07F0D1207EB1207E1BF3EFA7B47
:1002B300FF7A0479931207807F647E001206F07F31
:1002C3001A1207EB1207E1BF4FFA1207E1BF4BFA0D
:1002D3001207A57BFF7A0479251206707FF47E014D
:1002E3001206F0020161C2907D017F0112075112D3
:1002F30007A57BFF7A0479AF1206707D027F011296
:0C03030007517FF47E011206F002016138
:050713007F031206A7A0
:10071800E4FFFEE4FDFC0DBD00010CED64C84C7067
:0C072800F50FBF00010EEF640A4E70E7F1
:0107340022A2
:1006A700D291C297C296C295C294EF30E002D2941B
:1006B700EF30E102D295EF30E202D296EF30E3025B
:0506C700D297C2912250
:10079300AE07EEC4540FFF1206A7AF061206A70258
:0207A300071835
:1007A500C2907F011207937F011207931207180267
:0207B500071823
:1006CC00C2901207131207137F021206A712071803
:1006DC007F281207937F061207937F0C1207937FD4
:0406EC00010207936D
:10075100AB05AA07C290BB0107EA247FFF120793EA
:0B076100BB0207EA24BFFF120793222F
:0507F300D29002079303
:060670008B0D8A0E890FBC
:10067600E4F510F511AB0DAA0EA90F8511828510B0
:10068600831204D5FF1207F30511E5117002051058
:10069600AB0DAA0EA90FF5828510831204D570D56D
:0106A6002231
:04062B00AB07AA0669
:10062F007C007D0A1205698E128F137C007D64AFEA
:10063F0003AE02120569EF2430FF1207F3AE12AFBB
:10064F00137C007D0A120514ED2430FF1207F3AE60
:10065F0002AF037C007D0A120569ED2430FF02070B
:01066F00F397
:0107FD0022D9
:0C07C9007580FFC2A3C2A6D2A4C2A52264
:10073500E4FDFCEF540742A0D2A3D2A6C2A3C2A6F1
:0B07450030A4FDD2A5AF80AD07C2A517
:010750002286
:0407F80002160000E5
:1006F000E4FDFCC3ED9FEC9E5015E4FBFA0BBB0040
:10070000010ABA03F8BBE8F50DBD00010C80E4E472
:02071000FEFFEA
:0107120022C4
:10076C007E007C037DE81205028E168F171206F0B0
:04077C00E4FEFF2276
:1007B700EF75F03CA485F016F517FF12076CE4FE01
:0207C700FF220F
:0C07D500758920758DFD759850D28E221C
:0807EB008F993099FDC299229B
:100780001204BCFF600C1207EB740129F9E43AFA79
:0307900080EE22D6
:0907E100E4FF3098FDAF99C298C5
:0107EA0022EC
:1005AB00020003E493A3F8E493A34003F68001F263
:1005BB0008DFF48029E493A3F85407240CC8C33351
:1005CB00C4540F4420C8834004F456800146F6DF20
:1005DB00E4800B01020408102040809007F8E47EB1
:1005EB00019360BCA3FF543F30E509541FFEE49315
:1005FB00A360010ECF54C025E060A840B8E493A3DC
:10060B00FAE493A3F8E493A3C8C582C8CAC583CA06
:10061B00F0A3C8C582C8CAC583CADFE9DEE780BEBE
:0107FC0000FC
:1004BC00BB010689828A83E0225002E722BBFE023E
:0904CC00E32289828A83E4932271
:1004D500BB010CE58229F582E5833AF583E02250DC
:1004E50006E92582F8E622BBFE06E92582F8E22226
:0D04F500E58229F582E5833AF583E4932240
:10050200EF8DF0A4A8F0CF8CF0A428CE8DF0A42E0D
:02051200FE22C7
:10051400BC000BBE0029EF8DF084FFADF022E4CCCB
:10052400F875F008EF2FFFEE33FEEC33FCEE9DEC94
:10053400984005FCEE9DFE0FD5F0E9E4CEFD22EDDA
:10054400F8F5F0EE8420D21CFEADF075F008EF2F24
:10055400FFED33FD4007985006D5F0F222C398FD15
:050564000FD5F0EA22B2
:10056900C2D5EC30E709B2D5E4C39DFDE49CFCEEAD
:1005790030E715B2D5E4C39FFFE49EFE120514C30C
:10058900E49DFDE49CFC800312051430D507C3E407
:060599009FFFE49EFE221C
:00000001FF
