:0300000002017981
:0C017900787FE4F6D8FD7581110201C00A
:100281002020534D4F4B45204445544543544F5234
:100291002000534D4F4B453A20202050504D0042F5
:0F02A100555A5A45523A004F4E20004F464600DC
:0303D50001110013
:1000CD001202FB1203C91203A5C290C291D2B0C293
:1000DD00B0D290D2917D017F011203647BFF7A0231
:1000ED00798112024A7F0112037F1203A57FFA7EE6
:1000FD000012031FC290C2917D017F011203647B28
:10010D00FF7A02799312024A7D027F011203647B0A
:10011D00FF7A0279A012024AE4FBFDFF1202B08FB2
:10012D00117D017F07120364AF117E00120205E5F8
:10013D0011D39450500330B01DD290D2917D027FD7
:10014D00081203647BFF7A0279A812024A7FFA7EB5
:10015D000012031F80C2C290C2917D027F0812035C
:0C016D00647BFF7A0279AC12024A80AC7D
:050342007F031202D64A
:10034700E4FFFEE4FDFC0DBD00010CED64C84C703C
:0C035700F50FBF00010EEF640A4E70E7C6
:010363002277
:1002D600D293C297C296C295C294EF30E002D294EE
:1002E600EF30E102D295EF30E202D296EF30E30230
:0502F600D297C2932223
:10039300AE07EEC4540FFF1202D6AF061202D60206
:0203A30003470E
:1003A500C2927F011203937F011203931203470246
:0203B5000347FC
:1002FB00C2921203421203427F021202D61203472A
:10030B007F281203937F061203937F0C1203937FB4
:04031B000102039345
:10036400AB05AA07C292BB0107EA247FFF120393DD
:0B037400BB0207EA24BFFF1203932224
:0503DD00D2920203931F
:06024A008B088A09890AF5
:10025000E4F50BF50CAB08AA09A90A850C82850BFD
:1002600083120003FF1203DD050CE50C7002050B81
:10027000AB08AA09A90AF582850B8312000370D581
:01028000225B
:04020500AB07AA0693
:100209007C007D0A1200978E088F097C007D64AFFF
:1002190003AE02120097EF2430FF1203DDAE08AFE0
:10022900097C007D0A120042ED2430FF1203DDAE85
:1002390002AF037C007D0A120097ED2430FF020310
:01024900DDD7
:1002B000EF24FF92A4ED24FF92A5EB24FF92A6D297
:1002C000A0D2A1C2A0C2A130A2FDD2A3AF80750D61
:0602D000008F0EC2A32204
:0C03C9007580FFC2A0C2A1D2A2C2A32274
:0403D800020F000010
:10031F00E4FDFCC3ED9FEC9E5015E4FBFA0BBB0014
:10032F00010ABA03F8BBE8F50DBD00010C80E4E447
:02033F00FEFFBF
:010341002299
:10037F007E007C037DE81200308E0F8F1012031F5A
:04038F00E4FEFF2267
:1003B700EF75F03CA485F00FF510FF12037FE4FE04
:0203C700FF2213
:100185000200CDE493A3F8E493A34003F68001F2C3
:1001950008DFF48029E493A3F85407240CC8C3337B
:1001A500C4540F4420C8834004F456800146F6DF4A
:1001B500E4800B01020408102040809003D5E47E02
:1001C500019360BCA3FF543F30E509541FFEE4933F
:1001D500A360010ECF54C025E060A840B8E493A306
:1001E500FAE493A3F8E493A3C8C582C8CAC583CA31
:1001F500F0A3C8C582C8CAC583CADFE9DEE780BEE9
:0103DC000020
:10000300BB010CE58229F582E5833AF583E02250B2
:1000130006E92582F8E622BBFE06E92582F8E222FC
:0D002300E58229F582E5833AF583E4932216
:10003000EF8DF0A4A8F0CF8CF0A428CE8DF0A42EE4
:02004000FE229E
:10004200BC000BBE0029EF8DF084FFADF022E4CCA2
:10005200F875F008EF2FFFEE33FEEC33FCEE9DEC6B
:10006200984005FCEE9DFE0FD5F0E9E4CEFD22EDB1
:10007200F8F5F0EE8420D21CFEADF075F008EF2FFB
:10008200FFED33FD4007985006D5F0F222C398FDEC
:050092000FD5F0EA2289
:10009700C2D5EC30E709B2D5E4C39DFDE49CFCEE84
:1000A70030E715B2D5E4C39FFFE49EFE120042C3BA
:1000B700E49DFDE49CFC800312004230D507C3E4B5
:0600C7009FFFE49EFE22F3
:00000001FF
