:03000000020437C0
:0C043700787FE4F6D8FD75817D02047E1C
:10037700566F69636520436F6E74726F6C6C65644A
:1003870000202020425420526F626F740053746122
:10039700727420537065616B696E67203A2D29006E
:1003A7002A7374617274002A666F727761726400CF
:1003B7004D6F76696E6720466F72776172642E2E75
:1003C7002E2020002A6261636B77617264004D6F93
:1003D70076696E67204261636B776172642E2E2E99
:1003E7002020002A6C656674004D6F76696E672061
:1003F7004C6566742E2E2E20202020002A726967F5
:100407006874004D6F76696E672052696768742E4D
:100417002E2E2020002A73746F7000426F742053B1
:10042700746F707065642E2E2E2E2E2020202000D3
:100281001205B912069A1206641206B77D017F01A2
:100291001205F67BFF7A0379771205037D027F0150
:1002A1001205F67BFF7A0379881205037F01120696
:1002B1003E1206647BFF7A0379941205031206CD80
:1002C10012073912072A1204C37BFF7A0379A71296
:1002D1000688EF700C7BFF7A0379AE120688EF6017
:1002E100121206D67D017F011205F67BFF7A037992
:1002F100B780587BFF7A0379CB120688EF60121220
:1003010006DF7D017F011205F67BFF7A0379D58037
:100311003A7BFF7A0379EA120688EF60121206F13E
:100321007D017F011205F67BFF7A0379F0801C7B4A
:10033100FF7A047903120688EF60161206E87D0140
:100341007F011205F67BFF7A04790A120503020286
:10035100C77BFF7A04791C120688EF70030202C77B
:100361001206CD7D017F011205F67BFF7A04792209
:060371001205030202C7A1
:1005D900E4FFFEE4FDFC0DBD00010CED64C84C70A8
:0C05E900F50FBF00010EEF640A4E70E732
:0105F50022E3
:10057100D291C297C296C295C294EF30E002D29452
:10058100EF30E102D295EF30E202D296EF30E30292
:05059100D297C2912287
:10065200AE07EEC4540FFF120571AF061205710208
:0206620005D9B8
:10066400C2907F011206527F011206521205D9026E
:0206740005D9A6
:1005B900C2907F021206527F281206527F06120647
:1005C900527F0C1206527F801206527F0102065298
:1005F600AB05AA07C290BB0107EA247FFF12065289
:0B060600BB0207EA24BFFF12065222CD
:0706AB0012005BEF2430FF99
:0506B200D29002065287
:060503008B768A778978EF
:10050900E4F579F57AAB76AA77A978857A8285793F
:100519008312001CFF1206B2057AE57A700205798A
:10052900AB76AA77A978F58285798312001C70D5F4
:01053900229F
:10053A00AB07AA067C007D641206AB7C007D64AF23
:10054A0003AE0212005BAA04AB057C007D0AAF036E
:10055A00AE021206ABAE02AF037C007D0A12005B4C
:07056A00ED2430FF0206B290
:04071B00027B00005D
:10059600E4FDFCC3ED9FEC9E5015E4FBFA0BBB009B
:1005A600010ABA03F8BBE8F50DBD00010C80E4E4CE
:0205B600FEFF46
:0105B8002220
:10063E007E007C037DE81200498E7B8F7C1205962E
:04064E00E4FEFF22A5
:10067600EF75F03CA485F07BF57CFF12063EE4FEA8
:02068600FF2251
:10069A00C280C281C282C283C284C285C286C28724
:0106AA00222D
:01073E002298
:0906CD00C280C281C282C28322F4
:0906D600D280C281D282C28322CB
:0906DF00C280D281C282D28322C2
:0906E800C280C281D282C28322C9
:0906F100C280C281D282C28322C0
:0906FA00C280D281C282D28322A7
:09070300C280D281C282D283229D
:05072000C284D2852215
:05072500D284C2852210
:05072A00C284C285221B
:05072F00C286D2872202
:05073400D286C28722FD
:05073900C286C2872208
:0C06B700758920758DFD759850D28E223B
:08070C008F993099FDC299227A
:10061100120003FF600C12070C740129F9E43AFA85
:0706210080EEE4FF02070C6C
:0906C300E4FF3098FDAF99C298E4
:0106CC00220B
:10062800E4FFFE1206C374082EF8A6070EEF70F357
:05063800FB7A007908C7
:01063D00229A
:070714007B007A0079082246
:01073F002297
:1004C300E4F576FF1206C3746C2576F8A607057665
:1004D300D3E5766480948A4003E4F576EF640D6097
:1004E3000BEF640A6006EF6003BF23D8C298C2987B
:0F04F300C298C298C298E5766005246BF8E4F6CB
:0105020022D6
:10068800786C7C007D0012020FEF70037F01227FDF
:0206980000223E
:10044300020281E493A3F8E493A34003F68001F24C
:1004530008DFF48029E493A3F85407240CC8C333BA
:10046300C4540F4420C8834004F456800146F6DF89
:10047300E4800B010204081020408090071BE47EF7
:10048300019360BCA3FF543F30E509541FFEE4937E
:10049300A360010ECF54C025E060A840B8E493A345
:1004A300FAE493A3F8E493A3C8C582C8CAC583CA70
:1004B300F0A3C8C582C8CAC583CADFE9DEE780BE28
:01071F0000D9
:10000300BB010689828A83E0225002E722BBFE02FB
:09001300E32289828A83E493222E
:10001C00BB010CE58229F582E5833AF583E0225099
:10002C0006E92582F8E622BBFE06E92582F8E222E3
:0D003C00E58229F582E5833AF583E49322FD
:10004900EF8DF0A4A8F0CF8CF0A428CE8DF0A42ECB
:02005900FE2285
:10005B00C2D5EC30E709B2D5E4C39DFDE49CFCEEC0
:10006B0030E715B2D5E4C39FFFE49EFE12022CC30A
:10007B00E49DFDE49CFC800312022C30D507C3E405
:06008B009FFFE49EFE222F
:10009100E3F5F009E208B5F06D606B80F3E3F5F08C
:1000A10009E608B5F060605E80F387F009E608B5FF
:1000B100F054605280F487F009E208B5F0486046D8
:1000C10080F488828C8387F009E0A3B5F03860362C
:1000D10080F488828C8387F009E493A3B5F02760CC
:1000E1002580F388828C83E3F5F009E0A3B5F0164F
:1000F100601480F388828C83E3F5F009E493A3B55F
:10010100F004600280F20201BC808580E7808E806D
:10011100D2803C8015806C807E809B80B5808B80F6
:10012100A1804F8070803A0201C889828A83ECFAEB
:10013100E493F5F0A3C8C582C8CCC583CCE493A3EE
:10014100C8C582C8CCC583CCB5F070606E80E1892A
:10015100828A83E493F5F0A3E208B5F05E605C80E7
:10016100F289828A83E0F5F0A3E608B5F04D604B91
:1001710080F389828A83E0F5F0A3E208B5F03C6060
:100181003A80F389828A83E493F5F0A3E608B5F017
:100191002A602880F2805389828A83ECFAE493F5FD
:1001A100F0A3C8C582C8CCC583CCE0A3C8C582C8AA
:1001B100CCC583CCB5F004600280E27FFFB5F002CC
:1001C1000F2240027F012289828A83ECFAE0F5F056
:1001D100A3C8C582C8CCC583CCE0A3C8C582C8CC9E
:1001E100C583CCB5F0D560D380E389828A83ECFAEC
:1001F100E0F5F0A3C8C582C8CCC583CCE493A3C8FD
:10020100C582C8CCC583CCB5F0B160AF80E288F0BF
:10021100ED2402B4040050A3F582EB2402B40400DF
:0B0221005099232345822390010A73AB
:10022C00BC000BBE0029EF8DF084FFADF022E4CCB6
:10023C00F875F008EF2FFFEE33FEEC33FCEE9DEC7F
:10024C00984005FCEE9DFE0FD5F0E9E4CEFD22EDC5
:10025C00F8F5F0EE8420D21CFEADF075F008EF2F0F
:10026C00FFED33FD4007985006D5F0F222C398FD00
:05027C000FD5F0EA229D
:00000001FF
