:03000000020305F3
:0C030500787FE4F6D8FD75817502034C8A
:100225005069636B20616E6420506C6163650020CA
:10023500425420526F626F7400537461727420428D
:1002450054203A2D29004D6F76696E6720464F522E
:10025500574152442E2E2E2020004D6F76696E6731
:10026500204241434B574152442E2E2E2020004D13
:100275006F76696E67204C6566742E2E2E202020C1
:1002850020004D6F76696E672052696768742E2E5F
:100295002E202000424F542053746F707065642ED9
:1002A5002E2E2E2E202020200048616E64204D6FBA
:1002B50076652055502E2E2E2E2E0048616E642018
:1002C5004D6F766520446F776E2E2E2E2E2E0050A4
:1002D50069636B204F70656E2E2E2E2E2E2E0050CC
:1002E50069636B20436C6F73652E2E2E2E2E2E00A8
:1002F50041524D2026205049434B20535450440031
:100003001204AA1205791205551205A27D017F017A
:100013001204E77BFF7A0279251203917D027F01A7
:100023001204E77BFF7A0279341203917F011205F0
:100033002F1205557BFF7A02793E1203911205B800
:100043001206241206151205AE8F75E575B4461215
:100053001205C17D017F011204E77BFF7A02794B10
:10006300805AE575B442121205CA7D017F0112045C
:10007300E77BFF7A02795F8043E575B44C12120582
:10008300DC7D017F011204E77BFF7A027974802C07
:10009300E575B452121205D37D017F011204E77B8B
:1000A300FF7A0279878015E575B453131205B87D7D
:1000B300017F011204E77BFF7A027999120391E52C
:1000C30075B4441212060B7D027F011204E77BFF15
:1000D3007A0279AE8015E575B445131206107D02D8
:1000E3007F011204E77BFF7A0279C0120391E57561
:1000F300B44F1212061A7D027F011204E77BFF7AC6
:100103000279D48015E575B4501312061F7D027F62
:10011300011204E77BFF7A0279E4120391E5756427
:100123005A60030200491206241206157D027F015C
:0F0133001204E77BFF7A0279F51203910200496B
:1004CA00E4FFFEE4FDFC0DBD00010CED64C84C70B8
:0C04DA00F50FBF00010EEF640A4E70E742
:0104E60022F3
:10046200D291C297C296C295C294EF30E002D29462
:10047200EF30E102D295EF30E202D296EF30E302A2
:05048200D297C2912297
:10054300AE07EEC4540FFF120462AF061204620238
:0205530004CAD8
:10055500C2907F011205437F011205431204CA02AE
:0205650004CAC6
:1004AA00C2907F021205437F281205437F06120578
:1004BA00437F0C1205437F801205437F01020543E7
:1004E700AB05AA07C290BB0107EA247FFF120543A9
:0B04F700BB0207EA24BFFF12054322EE
:07058A0012019AEF2430FF7B
:05059100D290020543B9
:060391008B6C8A6D896E81
:10039700E4F56FF570AB6CAA6DA96E857082856FF9
:1003A7008312015BFF1205910570E5707002056FFE
:1003B700AB6CAA6DA96EF582856F8312015B70D550
:0103C7002213
:1003C800AB07AA067C007D6412058A7C007D64AFB9
:1003D80003AE0212019AAA04AB057C007D0AAF03A2
:1003E800AE0212058AAE02AF037C007D0A12019AA2
:0703F800ED2430FF02059126
:10043400EF24FF92A4ED24FF92A5EB24FF92A6D211
:10044400A0D2A1C2A0C2A130A2FDD2A3AF80757177
:0E045400008F72C2A31203FF7571008F722217
:0C0596007580FFC2A0C2A1D2A2C2A322A5
:0203FF00A9074C
:10040100E4FDFC74017E00A804088005C333CE33EB
:10041100CED8F9FFE9FBEF5B6012C374089CFF744F
:1004210001A807088002C333D8FC42050CBC09D3DC
:02043100AF0515
:0104330022A6
:04060600027300007B
:10048700E4FDFCC3ED9FEC9E5015E4FBFA0BBB00AB
:10049700010ABA03F8BBE8F50DBD00010C80E4E4DE
:0204A700FEFF56
:0104A9002230
:10052F007E007C037DE81201888E738F741204871E
:04053F00E4FEFF22B5
:10056700EF75F03CA485F073F574FF12052FE4FED8
:02057700FF2261
:10057900C280C281C282C283C284C285C286C28746
:01058900224F
:0106290022AE
:0905B800C280C281C282C283220A
:0905C100D280C281D282C28322E1
:0905CA00C280D281C282D28322D8
:0905D300C280C281D282C28322DF
:0905DC00C280C281D282C28322D6
:0905E500C280D281C282D28322BD
:0905EE00C280D281C282D28322B4
:05060B00C284D285222B
:05061000D284C2852226
:05061500C284C2852231
:05061A00C286D2872218
:05061F00D286C2872213
:05062400C286C287221E
:0C05A200758920758DFD759850D28E2251
:0805F7008F993099FDC2992291
:10050200120142FF600C1205F7740129F9E43AFA6C
:0705120080EEE4FF0205F793
:0905AE00E4FF3098FDAF99C298FA
:0105B7002221
:10051900E4FFFE1205AE74082EF8A6070EEF70F37D
:05052900FB7A007908D7
:01052E0022AA
:0705FF007B007A007908225D
:10031100020003E493A3F8E493A34003F68001F2FF
:1003210008DFF48029E493A3F85407240CC8C333ED
:10033100C4540F4420C8834004F456800146F6DFBC
:10034100E4800B0102040810204080900606E47E40
:10035100019360BCA3FF543F30E509541FFEE493B1
:10036100A360010ECF54C025E060A840B8E493A378
:10037100FAE493A3F8E493A3C8C582C8CAC583CAA3
:10038100F0A3C8C582C8CAC583CADFE9DEE780BE5B
:01060A0000EF
:10014200BB010689828A83E0225002E722BBFE02BB
:09015200E32289828A83E49322EE
:10015B00BB010CE58229F582E5833AF583E0225059
:10016B0006E92582F8E622BBFE06E92582F8E222A3
:0D017B00E58229F582E5833AF583E49322BD
:10018800EF8DF0A4A8F0CF8CF0A428CE8DF0A42E8B
:02019800FE2245
:10019A00C2D5EC30E709B2D5E4C39DFDE49CFCEE80
:1001AA0030E715B2D5E4C39FFFE49EFE1201D0C327
:1001BA00E49DFDE49CFC80031201D030D507C3E422
:0601CA009FFFE49EFE22EF
:1001D000BC000BBE0029EF8DF084FFADF022E4CC13
:1001E000F875F008EF2FFFEE33FEEC33FCEE9DECDC
:1001F000984005FCEE9DFE0FD5F0E9E4CEFD22ED22
:10020000F8F5F0EE8420D21CFEADF075F008EF2F6B
:10021000FFED33FD4007985006D5F0F222C398FD5C
:050220000FD5F0EA22F9
:00000001FF
