:03000000020421D6
:0C042100787FE4F6D8FD758117020468AE
:1002440048656C6D657420466F7220526F6164005E
:10025400202020536166657479004154004154455F
:10026400300041542B4350494E3F0041542B434DE1
:1002740047463D310041542B434D47533D222B39D2
:100284003139393839333639323333220042494B24
:10029400455B415020787820544B203030315D202C
:1002A4003A205354415254454420574F524B494EDF
:1002B4004700457665727468696E67204F4B004647
:1002C400616C6C2064657465637465640042494BB9
:1002D400455B415020787820544B203030315D20EC
:1002E4003A20454D455247454E43592046414C4CD2
:1002F40020444554454354454400416C636F686F42
:100304006C2064657465637465640042494B455BA5
:10031400415020787820544B203030315D3A2041D0
:100324004C434F484F4C20444554454354454400A6
:0A0334004E6F2068656C6D65740063
:03066D0001170072
:10000300E4F508F509F50AF50B12054E120657D269
:1000130081D282D283C284C285C286C287C280C291
:10002300801206277D017F011205D37BFF7A0279B7
:10003300441204F27D027F011205D37BFF7A027919
:10004300541204F2D2807BFF7A02795E1206027F99
:10005300327E001205727F0D120675120663BF4FC2
:10006300FA120663BF4BFA7BFF7A0279611206022A
:100073007F327E001205727F0D120675120663BF72
:100083004FFA120663BF4BFA7BFF7A0279661206B8
:10009300027F647E001205727F0D120675120663DD
:1000A300BF52FA120663BF45FA120663BF41FA1242
:1000B3000663BF44FA120663BF59FA7BFF7A0279DB
:1000C3006F1206027F647E001205727F0D120675A1
:1000D300120663BF4FFA120663BF4BFA7BFF7A0225
:1000E30079791206027F327E001205727F0D1206A5
:1000F30075120663BF3EFA7BFF7A027991120602FC
:100103007F647E001205727F1A120675120663BFA2
:100113004FFA120663BF4BFAC280120627A281E48C
:1001230033F508A282E433F509A283E433F50AE543
:100133000B701AC280C284C285C286C2877D017FCA
:10014300011205D37BFF7A0279B61204F2E5087037
:1001530062E50A6401705CE50B7058D280D286D2E6
:1001630087750B011206277BFF7A0279C31204F20B
:100173007BFF7A0279791206027F327E00120572C2
:100183007F0D120675120663BF3EFA7BFF7A027972
:10019300D11206027F647E001205727F1A12067561
:1001A300120663BF4FFA120663BF4BFA7FFA7E0053
:1001B300120572E5087062E5096401705CE50B7075
:1001C30058D280D285D287750B011206277BFF7A1E
:1001D3000279FE1204F27BFF7A0279791206027F1A
:1001E300327E001205727F0D120675120663BF3E42
:1001F300FA7BFF7A03790F1206027F647E001205F1
:10020300727F1A120675120663BF4FFA120663BF96
:100213004BFA7FFA7E00120572E50864016003025F
:100223000120D280D284D2871206277BFF7A0379FA
:10023300341204F27FFA7E00120572E4F50B020118
:01024300209A
:050595007F031205299F
:10059A00E4FFFEE4FDFC0DBD00010CED64C84C70E7
:0C05AA00F50FBF00010EEF640A4E70E771
:0105B6002222
:10052900D291C297C296C295C294EF30E002D2949A
:10053900EF30E102D295EF30E202D296EF30E302DA
:05054900D297C29122CF
:10061500AE07EEC4540FFF120529AF0612052902D5
:02062500059A34
:10062700C2907F011206157F0112061512059A0264
:02063700059A22
:10054E00C2901205951205957F0212052912059A81
:10055E007F281206157F061206157F0C1206157FD0
:04056E00010206156B
:1005D300AB05AA07C290BB0107EA247FFF120615E9
:0B05E300BB0207EA24BFFF120615222E
:05067D00D290020615F9
:0604F2008B0C8A0D890E3F
:1004F800E4F50FF510AB0CAA0DA90E851082850F37
:1005080083120357FF12067D0510E5107002050FD0
:10051800AB0CAA0DA90EF582850F8312035770D56F
:0105280022B0
:0404AD00AB07AA06E9
:1004B1007C007D0A1203EB8E118F127C007D64AFEC
:1004C10003AE021203EBEF2430FF12067DAE11AF33
:1004D100127C007D0A120396ED2430FF12067DAED8
:1004E10002AF037C007D0A1203EBED2430FF02060C
:0104F1007D8D
:010682002255
:0C064B007580FFC2A0C2A1D2A2C2A322EF
:1005B700E4FDFCEF540742A0D2A0D2A1C2A0C2A181
:0B05C70030A2FDD2A3AF80AD07C2A39D
:0105D2002206
:04067000021500006F
:10057200E4FDFCC3ED9FEC9E5015E4FBFA0BBB00BF
:10058200010ABA03F8BBE8F50DBD00010C80E4E4F2
:02059200FEFF6A
:010594002244
:1005EE007E007C037DE81203848E158F1612057231
:0405FE00E4FEFF22F6
:10063900EF75F03CA485F015F516FF1205EEE4FE02
:02064900FF228E
:0C065700758920758DFD759850D28E229B
:080675008F993099FDC2992212
:1006020012033EFF600C120675740129F9E43AFAEE
:0306120080EE2255
:09066300E4FF3098FDAF99C29844
:01066C00226B
:10042D00020003E493A3F8E493A34003F68001F2E2
:10043D0008DFF48029E493A3F85407240CC8C333D0
:10044D00C4540F4420C8834004F456800146F6DF9F
:10045D00E4800B010204081020408090066DE47EBC
:10046D00019360BCA3FF543F30E509541FFEE49394
:10047D00A360010ECF54C025E060A840B8E493A35B
:10048D00FAE493A3F8E493A3C8C582C8CAC583CA86
:10049D00F0A3C8C582C8CAC583CADFE9DEE780BE3E
:010674000085
:10033E00BB010689828A83E0225002E722BBFE02BD
:09034E00E32289828A83E49322F0
:10035700BB010CE58229F582E5833AF583E022505B
:1003670006E92582F8E622BBFE06E92582F8E222A5
:0D037700E58229F582E5833AF583E49322BF
:10038400EF8DF0A4A8F0CF8CF0A428CE8DF0A42E8D
:02039400FE2247
:10039600BC000BBE0029EF8DF084FFADF022E4CC4B
:1003A600F875F008EF2FFFEE33FEEC33FCEE9DEC14
:1003B600984005FCEE9DFE0FD5F0E9E4CEFD22ED5A
:1003C600F8F5F0EE8420D21CFEADF075F008EF2FA4
:1003D600FFED33FD4007985006D5F0F222C398FD95
:0503E6000FD5F0EA2232
:1003EB00C2D5EC30E709B2D5E4C39DFDE49CFCEE2D
:1003FB0030E715B2D5E4C39FFFE49EFE120396C30C
:10040B00E49DFDE49CFC800312039630D507C3E406
:06041B009FFFE49EFE229B
:00000001FF
