:0300000002027980
:0C027900787FE4F6D8FD7581100202C009
:1001D2004175746F6E6F6D6F757320526F626F74BD
:1001E20000466F7220506174682046696E64696EC1
:1001F20067004D6F76696E6720464F5257415244F1
:100202002E2E2E2020004D6F76696E67204C65667B
:10021200742E2E2E20202020004D6F76696E6720CE
:10022200466F72776172642E2E2E004D6F76696E64
:10023200672052696768742E2E2E202000424F5488
:100242002053746F707065642E2E2E2E2E20202067
:1002520020004D4F56494E47204241434B574F5283
:10026200442E2E2E20004241434B205249474854EF
:070272002E2E2E2E2E20007F
:1000030012041E1204D812049C7D017F0112045BAA
:100013007BFF7A0179D21203057D027F0112045B13
:100023007BFF7A0179E31203057F01120476120440
:100033009C12049C1204EA7D017F0112045B7BFF86
:100043007A0179F41203057F021204761205057D05
:10005300017F0112045B7BFF7A0279081203057F9B
:10006300F47E011203FB1204EA7D017F0112045B9B
:100073007BFF7A02791B1203057FD07E071203FBF5
:100083001204FC7D017F0112045B7BFF7A02792D50
:100093001203057FC87E001203FB1204EA7D017F71
:1000A3000112045B7BFF7A02791B1203057FD07E6A
:1000B300071203FB1204E17D017F0112045B7BFF46
:1000C3007A02793F1203057FD07E071203FB1204E5
:1000D300F37D017F0112045B7BFF7A0279541203E3
:1000E300057FD07E071203FB12050E7D017F0112EF
:1000F300045B7BFF7A0279681203057FF47E0112A9
:0501030003FB020034C3
:10043E00E4FFFEE4FDFC0DBD00010CED64C84C7044
:0C044E00F50FBF00010EEF640A4E70E7CE
:01045A00227F
:1003D600D291C297C296C295C294EF30E002D294EF
:1003E600EF30E102D295EF30E202D296EF30E3022F
:0503F600D297C2912224
:10048A00AE07EEC4540FFF1203D6AF061203D6020C
:02049A00043E1E
:10049C00C2907F0112048A7F0112048A12043E0268
:0204AC00043E0C
:10041E00C2907F0212048A7F2812048A7F06120479
:10042E008A7F0C12048A7F8012048A7F0102048A5A
:10045B00AB05AA07C290BB0107EA247FFF12048AEF
:0B046B00BB0207EA24BFFF12048A2234
:0704C000120147EF2430FF99
:0504C700D29002048A3E
:060305008B088A09890A39
:10030B00E4F50BF50CAB08AA09A90A850C82850B41
:10031B0083120108FF1204C7050CE50C7002050BD4
:10032B00AB08AA09A90AF582850B8312010870D5BF
:01033B00229F
:10033C00AB07AA067C007D641204C07C007D64AF10
:10034C0003AE02120147AA04AB057C007D0AAF0381
:10035C00AE021204C0AE02AF037C007D0A1201474C
:07036C00ED2430FF0204C77D
:1003A800EF24FF92A4ED24FF92A5EB24FF92A6D29E
:1003B800A0D2A1C2A0C2A130A2FDD2A3AF80750D68
:0E03C800008F0EC2A3120373750D008F0E225C
:0C04CC007580FFC2A0C2A1D2A2C2A32270
:02037300A907D8
:10037500E4FDFC74017E00A804088005C333CE3378
:10038500CED8F9FFE9FBEF5B6012C374089CFF74DC
:1003950001A807088002C333D8FC42050CBC09D369
:0203A500AF05A2
:0103A7002233
:04052000020F0000C6
:1003FB00E4FDFCC3ED9FEC9E5015E4FBFA0BBB0038
:10040B00010ABA03F8BBE8F50DBD00010C80E4E46A
:02041B00FEFFE2
:01041D0022BC
:100476007E007C037DE81201358E0F8F101203FB80
:04048600E4FEFF226F
:1004AE00EF75F03CA485F00FF510FF120476E4FE14
:0204BE00FF221B
:0904D800C280C281C282C28322EB
:0105250022B3
:0904E100C280C281C282C28322E2
:0904EA00D280C281D282C28322B9
:0904F300C280D281C282D28322B0
:0904FC00C280C281D282C28322B7
:09050500C280C281D282C28322AD
:09050E00C280D281C282D2832294
:09051700C280D281C282D283228B
:10028500020003E493A3F8E493A34003F68001F28C
:1002950008DFF48029E493A3F85407240CC8C3337A
:1002A500C4540F4420C8834004F456800146F6DF49
:1002B500E4800B0102040810204080900520E47EB4
:1002C500019360BCA3FF543F30E509541FFEE4933E
:1002D500A360010ECF54C025E060A840B8E493A305
:1002E500FAE493A3F8E493A3C8C582C8CAC583CA30
:1002F500F0A3C8C582C8CAC583CADFE9DEE780BEE8
:0105240000D6
:10010800BB010CE58229F582E5833AF583E02250AC
:1001180006E92582F8E622BBFE06E92582F8E222F6
:0D012800E58229F582E5833AF583E4932210
:10013500EF8DF0A4A8F0CF8CF0A428CE8DF0A42EDE
:02014500FE2298
:10014700C2D5EC30E709B2D5E4C39DFDE49CFCEED3
:1001570030E715B2D5E4C39FFFE49EFE12017DC3CD
:10016700E49DFDE49CFC800312017D30D507C3E4C8
:060177009FFFE49EFE2242
:10017D00BC000BBE0029EF8DF084FFADF022E4CC66
:10018D00F875F008EF2FFFEE33FEEC33FCEE9DEC2F
:10019D00984005FCEE9DFE0FD5F0E9E4CEFD22ED75
:1001AD00F8F5F0EE8420D21CFEADF075F008EF2FBF
:1001BD00FFED33FD4007985006D5F0F222C398FDB0
:0501CD000FD5F0EA224D
:00000001FF
