:03000000020404F3
:0C040400787FE4F6D8FD75811802044BE7
:1002A0004175746F6E6F6D6F757320526F626F74EE
:1002B00000466F7220506174682046696E64696EF2
:1002C00067004F42535441434C4520524F424F54D4
:1002D00020004F42535445434C4520444554454328
:1002E000544544004D6F76696E6720464F52574122
:1002F00052442E2E2E2020004D6F76696E67204CC2
:100300006566742E2E2E20202020004D6F76696E9B
:100310006720466F72776172642E2E2E004D6F76C5
:10032000696E672052696768742E2E2E2020004265
:100330004F542053746F707065642E2E2E2E2E2015
:10034000202020004D4F56494E47204241434B57F5
:100350004F52442E2E2E20004241434B20524947FB
:0903600048542E2E2E2E2E2000F2
:0405E8000208000005
:10000300C2811205DD1205A97D017F011205557B11
:10001300FF7A0279A01204907D027F011205557BBD
:10002300FF7A0279B11204907F011205701205A9BB
:10003300C2811204EC7D017F011205557BFF7A0218
:1000430079C21204907F01120570758919E4F58C49
:10005300F58AD28CF50CF50D1205CD050DE50D7065
:1000630002050CC39470E50C941740ECD2B5E4F58B
:100073000AF50B1205CD050BE50B7002050AC394B7
:100083000AE50A940040ECC2B530B2FD20B2FD850A
:100093008C83858A82AF82AE83E4FCFD7BB87A8849
:1000A300F9F8D31202354011E582AE837806CEC348
:1000B30013CE13D8F9F5098E08C3E509941EE50894
:1000C30094005021D281D284C285C286C2877D0228
:1000D3007F011205557BFF7A0279D21204907FFAD1
:1000E3007E000201B61205A91205FA7D017F0112F5
:1000F30005557BFF7A0279E41204907F02120570A2
:100103001206157D017F011205557BFF7A0279F8EE
:100113001204907FF47E011205101205FA7D017F0F
:10012300011205557BFF7A03790B1204907FD07E71
:100133000712051012060C7D017F011205557BFF86
:100143007A03791D1204907FC87E001205101205F0
:10015300FA7D017F011205557BFF7A03790B1204A7
:10016300907FD07E071205101205F17D017F0112E9
:1001730005557BFF7A03792F1204907FD07E0712F7
:1001830005101206037D017F011205557BFF7A03DB
:1001930079441204907FD07E0712051012061E7D4B
:1001A300017F011205557BFF7A0379581204907F72
:0D01B300F47E01120510C28CC28D02004DB9
:050533007F031204C764
:10053800E4FFFEE4FDFC0DBD00010CED64C84C7049
:0C054800F50FBF00010EEF640A4E70E7D3
:010554002284
:1004C700D293C297C296C295C294EF30E002D294FB
:1004D700EF30E102D295EF30E202D296EF30E3023D
:0504E700D297C2932230
:10059700AE07EEC4540FFF1204C7AF061204C7021A
:0205A700053815
:1005A900C2927F011205977F011205971205380241
:0205B900053803
:1004EC00C2921205331205337F021204C71205386B
:1004FC007F281205977F061205977F0C1205977FB0
:04050C00010205974C
:10055500AB05AA07C292BB0107EA247FFF120597E4
:0B056500BB0207EA24BFFF120597222B
:05063000D292020597C3
:060490008B0E8A0F89109B
:10049600E4F511F512AB0EAA0FA91085128285118B
:1004A600831201C0FF1206300512E5127002051113
:1004B600AB0EAA0FA910F5828511831201C070D563
:0104C6002213
:04036900AB07AA062E
:10036D00E4F513F514F515F516EB4A70057F30021B
:10037D000630EB4A60437C007D0AAF03AE021201EA
:10038D00FF8C838D82AE13AF147C007D0A1201EDBC
:10039D00EF2582F514EE3583F513E582458370085C
:1003AD000516E516700205157C007D0AAF03AE0239
:1003BD001201FFAA06AB0780B9E51445136023AE01
:1003CD0013AF147C007D0A1201FFED2430FF1206DD
:1003DD0030AE13AF147C007D0A1201FF8E138F1403
:1003ED0080D7E5161516AE15700215154E60077FF0
:0603FD003012063080EC16
:0104030022D6
:0405EC0002170000F2
:10051000E4FDFCC3ED9FEC9E5015E4FBFA0BBB0021
:10052000010ABA03F8BBE8F50DBD00010C80E4E454
:02053000FEFFCC
:0105320022A6
:100570007E007C037DE81201ED8E178F18120510A6
:04058000E4FEFF2274
:1005BB00EF75F03CA485F017F518FF120570E4FEFB
:0205CB00FF220D
:10058400758901758CFF758AF6D28C308DFDC28C0D
:03059400C28D22F3
:1005CD00758DFF758BFED28E308FFDC28EC28F2240
:0B05DD00C280C281C282C2830205F10D
:0106350022A2
:0905F100C280C281C282C28322D1
:0905FA00D280C281D282C28322A8
:09060300C280D281C282D283229E
:09060C00C280C281D282C28322A5
:09061500C280C281D282C283229C
:09061E00C280D281C282D2832283
:09062700C280D281C282D283227A
:10041000020003E493A3F8E493A34003F68001F2FF
:1004200008DFF48029E493A3F85407240CC8C333ED
:10043000C4540F4420C8834004F456800146F6DFBC
:10044000E4800B01020408102040809005E8E47E5F
:10045000019360BCA3FF543F30E509541FFEE493B1
:10046000A360010ECF54C025E060A840B8E493A378
:10047000FAE493A3F8E493A3C8C582C8CAC583CAA3
:10048000F0A3C8C582C8CAC583CADFE9DEE780BE5B
:0105F000000A
:1001C000BB010CE58229F582E5833AF583E02250F4
:1001D00006E92582F8E622BBFE06E92582F8E2223E
:0D01E000E58229F582E5833AF583E4932258
:1001ED00EF8DF0A4A8F0CF8CF0A428CE8DF0A42E26
:0201FD00FE22E0
:1001FF00C2D5EC30E709B2D5E4C39DFDE49CFCEE1B
:10020F0030E715B2D5E4C39FFFE49EFE12024BC345
:10021F00E49DFDE49CFC800312024B30D507C3E440
:06022F009FFFE49EFE2289
:10023500EB9FF5F0EA9E42F0E99D42F0EC6480C840
:0602450064809845F022E0
:10024B00BC000BBE0029EF8DF084FFADF022E4CC97
:10025B00F875F008EF2FFFEE33FEEC33FCEE9DEC60
:10026B00984005FCEE9DFE0FD5F0E9E4CEFD22EDA6
:10027B00F8F5F0EE8420D21CFEADF075F008EF2FF0
:10028B00FFED33FD4007985006D5F0F222C398FDE1
:05029B000FD5F0EA227E
:00000001FF
